{
  "contractName": "DontBanCoin",
  "abi": [
    {
      "inputs": [],
      "payable": false,
      "stateMutability": "nonpayable",
      "type": "constructor"
    },
    {
      "constant": true,
      "inputs": [],
      "name": "totalSupply",
      "outputs": [
        {
          "internalType": "uint256",
          "name": "",
          "type": "uint256"
        }
      ],
      "payable": false,
      "stateMutability": "view",
      "type": "function"
    }
  ],
  "bytecode": "0x6080604052348015600f57600080fd5b506302faf0806000819055506084806100296000396000f3fe6080604052348015600f57600080fd5b506004361060285760003560e01c806318160ddd14602d575b600080fd5b60336049565b6040518082815260200191505060405180910390f35b6000548156fea265627a7a7231582066c0ba8d9957671825919e6314d3d1dad30bd8010df5d11c62083d56fc39cd4064736f6c63430005100032",
  "source": "pragma solidity ^0.5.16;\n\ncontract DontBanCoin {\n    // Constructor\n    // Set the total no of tokens\n    // Read the total no of tokens\n    uint256 public totalSupply;\n\n    constructor() public {\n        totalSupply = 50000000;\n    }\n}\n",
  "sourcePath": "/home/pseudo-x/Documents/Blockchain/Dont_ban_coin/contracts/DontBanCoin.sol",
  "compiler": {
    "name": "solc",
    "version": "0.5.16+commit.9c3226ce.Emscripten.clang"
  },
  "schemaVersion": "3.4.1",
  "updatedAt": "2021-07-07T14:58:13.035Z",
  "networkType": "ethereum",
  "devdoc": {
    "methods": {}
  },
  "userdoc": {
    "methods": {}
  }
}